:020000020000FC
:1000000004E00EBF0FEF0DBF0FEF04B91FEF00ECC0
:1000100005B90E944E0015B90E944E0009EF05B9BE
:100020000E944E0015B90E944E0004EA05B90E94D4
:100030004E0015B90E944E0000EB05B90E944E001B
:1000400015B90E944E0009E905B90E944E0015B984
:100050000E944E0002E905B90E944E0015B90E94A7
:100060004E0002E805B90E944E0015B90E944E00EC
:1000700008EF05B90E944E0015B90E944E0000E03D
:1000800005B90E944E0015B90E944E0000E905B95D
:100090000E944E0015B90E944E00B9CF48E158ECBD
:1000A0006AEF000000006A95E1F75A95C9F74A9592
:0400B000B1F7089507
:00000001FF
