:020000020000FC
:1000000004E00EBF0FEF0DBF0FEF04B91FEF08EFB5
:1000100005B90E94400015B90E94400009E805B9E1
:100020000E94400015B90E9440000FEA05B90E94E5
:10003000400015B90E9440000BEF05B90E94400036
:1000400015B90E94400009EF05B90E94400015B99A
:100050000E94400009EF05B90E94400015B90E94B6
:10006000400006E805B90E94400015B90E94400012
:100070000FEA05B90E94400015B90E944000C7CFA1
:1000800048E158EC6AEF000000006A95E1F75A95E4
:08009000C9F74A95B1F7089584
:00000001FF
