:020000020000FC
:1000000004E00EBF0FEF0DBF0FEF04B91FEF00ECC0
:1000100005B90E94780015B90E94780009EF05B96A
:100020000E94780015B90E94780004EA05B90E9480
:10003000780015B90E94780000EB05B90E9478009D
:1000400015B90E94780009E905B90E94780015B930
:100050000E94780002E905B90E94780015B90E9453
:10006000780002E805B90E94780015B90E9478006E
:1000700008EF05B90E94780015B90E94780000E0E9
:1000800005B90E94780015B90E94780000E905B909
:100090000E94780015B90E9478000BEF05B90E9404
:1000A000840015B90E9484000DEF05B90E948400F8
:1000B00015B90E9484000EEF05B90E94840015B99D
:1000C0000E9484000FED05B90E94840015B90E94BA
:1000D00084000FEE05B90E94840015B90E948400C7
:1000E00007EF05B90E94840015B90E9484008FCFE4
:1000F00048E158EC6AEF000000006A95E1F75A9574
:10010000C9F74A95B1F708954FE058EC6AEF00003F
:1001100000006A95E1F75A95C9F74A95B1F7089535
:00000001FF
