:020000020000FC
:1000000004E00EBF0FEF0DBF0FEF04B91AB90BB923
:10001000489B0E941500499B0E9428004A9B0E9411
:100020003B004B9B0E944A00F3CF05E405B90E94B8
:100030005A00079505B90E945A00079505B90E9414
:100040005A00079505B90E945A0048990895EDCFC6
:1000500005E405B90E945A00001F05B90E945A0024
:10006000001F05B90E945A00001F05B90E945A00DE
:1000700049990895EDCF222425B80E945A005FEFD8
:1000800055B90E945A00252625B80E945A004A995F
:100090000895F1CFAA24A094A5B80E945A000AEAB4
:1000A00005B90E945A00A026A5B80E945A004B9993
:1000B0000895F0CF42E358EC6AEF000000006A9523
:0C00C000E1F75A95C9F74A95B1F7089589
:00000001FF
