:020000020000FC
:1000000004E00EBF0FEF0DBF4FEF44B901E005B99B
:100010000E94430003E005B90E94430007E005B9D0
:100020000E9443000FE005B90E9443000FE105B9AB
:100030000E9443000FE305B90E9443000FE705B992
:100040000E9443000FEF05B90E9443000FE705B976
:100050000E9443000FE305B90E9443000FE105B978
:100060000E9443000FE005B90E94430007E005B974
:100070000E94430003E005B90E94430001E005B976
:100080000E944300C3CF43E052E062E00000000062
:0E0090006A95E1F75A95C9F74A95B1F70895B8
:00000001FF
