:020000020000FC
:1000000004E00EBF0FEF0DBF0FEF04B91AE02CE0B4
:1000100035E015B90E945A0025B90E945A00210FF7
:1000200025B90E945A0005B90E945A002CE025B952
:100030000E945A0035B90E945A00320F35B90E9409
:100040005A0005B90E945A0035E015B90E945A00BD
:1000500025B90E945A0035B90E945A00310F320F5B
:1000600035B90E945A0005B935E035B90E945A00E9
:1000700025B90E945A00329F05B80E945A0035E007
:1000800005B90E945A0015B90E945A0025B9129F5D
:1000900015B90E945A0005B90E945A0015B90E946C
:1000A0005A0035B90E945A00319F35B90E945A0052
:1000B00005B9ACCF41E052E062E0000000006A9573
:0C00C000E1F75A95C9F74A95B1F7089589
:00000001FF
