:020000020000FC
:1000000004E00EBF0FEF0DBF0FEF04B91AE02CE0B4
:1000100035E07CEA120F75B90E94510015B91AE05B
:100020000E94510005B90E94510075EC230F75B96B
:100030000E94510025B92CE00E94510005B90E9490
:10004000510075EA130F75B90E94510015B91AE0F5
:100050000E94510005B90E9451007CE5239F75B9AB
:100060000E94510005B82CE00E94510005B90E9481
:1000700051007CEA219F75B90E94510005B82CE01F
:100080000E94510005B90E94510075EA319F75B96F
:100090000E94510005B80E94510005B90E9451000C
:1000A000B5CF46E958EC6AEF000000006A95E1F729
:0A00B0005A95C9F74A95B1F7089573
:00000001FF
