:100000000C9464000C9481000C9481000C946104A5
:100010000C9481000C9481000C9481000C9481005C
:100020000C9481000C9481000C9481000C9481004C
:100030000C9481000C9481000C9481000C9481003C
:100040000C9481000C9481000C9481000C9481002C
:100050000C9481000C9481000C948601A8EA802AFB
:100060000040000A510A084059551801111E111B81
:10007000500B411B411F1101511F511B000000007B
:100080000880001A204000000000510F91394114EF
:100090009131411E410E411D500F802010154886A0
:1000A0004014780570855115510E5195518E21904F
:1000B00081205015484450C528C0282009504114BB
:1000C000208011110000001011241FBECFEFD4E0DA
:1000D000DEBFCDBF11E0A0E0B1E0EAE1F9E102C08E
:1000E00005900D92AE30B107D9F721E0AEE0B1E056
:1000F00001C01D92A43BB207E1F70E9422020C94BA
:100100008B0C0C940000CF93DF93CDB7DEB787EE56
:1001100090E02FE0FC01208385EE90E027EBFC01CE
:10012000208386EE90E027E0FC01208384EE90E0BF
:1001300020ECFC01208384EE90E024EE30E0F90115
:1001400020812860FC012083DF91CF910895CF9317
:10015000DF9300D000D01F92CDB7DEB79D838C8394
:1001600019822EC08C819D819C012F5F3F4F3D8362
:100170002C83FC0180818B838B818A3290F08B8170
:100180008B3778F48981882F90E02B81203219F009
:100190002B812A5201C02FEF8F5E9E4FFC012083DE
:1001A0000CC08B81882309F40EC08981882F90E0D0
:1001B0008F5E9E4F2FEFFC01208389818F5F8983A3
:1001C0008981843178F281E09981973008F480E068
:1001D000809341018AE080930F011A820EC08981C9
:1001E00091E0980F9983882F90E08F5E9E4F2FEFBC
:1001F000FC0120838A818F5F8A838A81873078F32C
:100200008981882F90E08F5E9E4FFC0110821092B2
:100210001001898180930E0181E080932C010F9061
:100220000F900F900F900F90DF91CF910895CF9383
:10023000DF93CDB7DEB72D970FB6F894DEBF0FBEB4
:10024000CDBF8C876D871A8219828D858695882F00
:1002500090E0835D9E4F9C838B838C858F3FB9F0AC
:100260008C85882F90E0880F991F845A9F4F99871B
:10027000888788859985FC0125913491CF013B873A
:100280002A87998788878A859B859A8389831D8297
:1002900031C080EF8E8389818F708F838D85882F09
:1002A00090E081709927009731F08FE08E838F81E5
:1002B0008295807F8F838B819C81FC0190818E81D0
:1002C00098238F81292F282B8B819C81FC012083EF
:1002D00089819A81929582958F7089279F7089274D
:1002E0009A8389838B819C8105969C838B838D81E6
:1002F0008F5F8D838D81843060F22D960FB6F894D8
:10030000DEBF0FBECDBFDF91CF9108951F920F9238
:1003100000905F000F9211242F933F934F935F93B0
:100320006F937F938F939F93AF93BF93EF93FF93BD
:10033000CF93DF9300D01F92CDB7DEB780914101FC
:10034000882369F080910F01882321F481E0809354
:100350002C0105C080910F01815080930F01809185
:100360002C01882309F441C019822AC09091100100
:100370008981890F8A8380910E019A81981788F06C
:100380008A81282F30E080910E01882F90E0A9010A
:10039000481B590BCA018F5E9E4FFC0180818A83E6
:1003A00008C08A81882F90E08F5E9E4FFC0180817B
:1003B0008A8369818A810E94170189818F5F89837D
:1003C0008981863098F28091100191E0980F909386
:1003D000100190910E01891719F481E080931001AA
:1003E00083E080930F0110922C011B8211C08B813E
:1003F000882F90E084519F4F2B81222F30E0235D86
:100400003E4FF9012081FC0120838B818F5F8B831C
:100410008B81843160F30F900F900F90DF91CF911B
:10042000FF91EF91BF91AF919F918F917F916F91CC
:100430005F914F913F912F910F9000925F000F902D
:100440001F901895CF93DF93CDB7DEB7C054D10975
:100450000FB6F894DEBF0FBECDBF84E290E02EEF62
:10046000FC0120830E9483008CE690E02CE630E0C3
:10047000F90120812160FC0120838DE390E02DE3D0
:1004800030E0F90120812068FC01208384E490E0C1
:1004900024E430E0F90120812460FC0120838EE611
:1004A00090E02EE630E0F90120812260FC012083FB
:1004B0008FE690E02FE630E0F90120812260FC0118
:1004C000208384E290E02FEFFC01208385E290E01E
:1004D000FC01108280E090E0A0E0B0E489839A8380
:1004E000AB83BC832BEA3AEA4AEA5EE369817A810C
:1004F0008B819C810E945709DC01CB018D839E83F7
:10050000AF83B88720E030E040E85EE369817A811C
:100510008B819C810E945709DC01CB0189879A87D6
:10052000AB87BC8720E030E040E85FE36D817E81EF
:100530008F8198850E94040888231CF481E08D87B0
:10054000B2C020E03FEF4FE757E469857A858B859D
:100550009C850E94530918160CF07BC020E030E007
:100560004AE754E469817A818B819C810E94080862
:10057000DC01CB018E879F87A88BB98B20E030E010
:100580004AE753E46E857F85888999890E945709D7
:10059000DC01CB018A8B9B8BAC8BBD8B20E030E0E8
:1005A00040E85FE36A897B898C899D890E94040801
:1005B00088232CF481E090E09F8B8E8B3FC020E05D
:1005C0003FEF4FE757E46A897B898C899D890E94B8
:1005D000530918164CF520E030E040E251E46E85F6
:1005E0007F85888999890E945709DC01CB01BC016C
:1005F000CD010E947508DC01CB019F8B8E8B0FC053
:1006000089E190E0998F888F888D998D0197F1F716
:10061000998F888F8E899F8901979F8B8E8B8E896A
:100620009F89009769F73FC06A897B898C899D897A
:100630000E947508DC01CB019F8B8E8B8E899F8970
:100640009B8F8A8F8A8D9B8D0197F1F79B8F8A8F65
:100650002AC020E030E04FE753E46D817E818F8136
:1006600098850E9453091816ACF469857A858B85A4
:100670009C850E947508DC01CB019D8F8C8F8C8D31
:100680009D8D9F8F8E8F8E8D9F8D0197F1F79F8F00
:100690008E8F0FC06D817E818F8198850E94750835
:1006A000DC01CB018D878D8588A388A18A95F1F720
:1006B00088A385E290E021E0FC01208380E090E0C7
:1006C000A0EAB0E489A39AA3ABA3BCA32BEA3AEABD
:1006D0004AEA5EE369A17AA18BA19CA10E94570915
:1006E000DC01CB018DA39EA3AFA3B8A720E030E02F
:1006F00040E85EE369A17AA18BA19CA10E94570901
:10070000DC01CB0189A79AA7ABA7BCA720E030E00A
:1007100040E85FE36DA17EA18FA198A50E94040827
:1007200088231CF481E08DA7B2C020E03FEF4FE7A3
:1007300057E469A57AA58BA59CA50E9453091816B4
:100740000CF07BC020E030E04AE754E469A17AA1D4
:100750008BA19CA10E940808DC01CB018EA79FA75A
:10076000A8ABB9AB20E030E04AE753E46EA57FA523
:1007700088A999A90E945709DC01CB018AAB9BABE0
:10078000ACABBDAB20E030E040E85FE36AA97BA9F9
:100790008CA99DA90E94040888232CF481E090E094
:1007A0009FAB8EAB3FC020E03FEF4FE757E46AA915
:1007B0007BA98CA99DA90E94530918164CF520E02D
:1007C00030E040E251E46EA57FA588A999A90E9476
:1007D0005709DC01CB01BC01CD010E947508DC0189
:1007E000CB019FAB8EAB0FC089E190E099AF88AF92
:1007F00088AD99AD0197F1F799AF88AF8EA99FA900
:1008000001979FAB8EAB8EA99FA9009769F73FC058
:100810006AA97BA98CA99DA90E947508DC01CB015E
:100820009FAB8EAB8EA99FA99BAF8AAF8AAD9BADC4
:100830000197F1F79BAF8AAF2AC020E030E04FE785
:1008400053E46DA17EA18FA198A50E9453091816AB
:10085000ACF469A57AA58BA59CA50E947508DC015E
:10086000CB019DAF8CAF8CAD9DAD9FAF8EAF8EADEC
:100870009FAD0197F1F79FAF8EAF1CC06DA17EA118
:100880008FA198A50E947508DC01CB018DA72DA52D
:10089000CE01805C9F4FFC012083CE01805C9F4F86
:1008A000FC018081282F2A95F1F7CE01805C9F4FB3
:1008B000FC01208384E290E024E0FC012083789412
:1008C000FFCF1F920F9200905F000F9211242F9381
:1008D0003F934F935F936F937F938F939F93AF93C8
:1008E000BF93EF93FF93CF93DF93CDB7DEB76C97B2
:1008F000DEBFCDBF80914801909149010196909350
:1009000049018093480180914801909149018330C9
:10091000910521F486E490E0FC0110828091480169
:10092000909149018430910509F095C184E490E0EB
:10093000FC01808184E490E0FC01108286E490E078
:10094000FC018081882F90E0AA2797FDA095BA2FFF
:10095000BC01CD010E94A308DC01CB012BE13FE2E9
:100960004DE55EE3BC01CD010E945709DC01CB01DE
:10097000BC01CD010E947008DC01CB0190934701BE
:10098000809346018091460190914701292F2F9332
:100990008F9380E091E0892F8F9380E091E08F9397
:1009A0008CE491E0892F8F938CE491E08F930E94E7
:1009B000BA090F900F900F900F900F900F908CE44A
:1009C00091E00E94A70080914601909147018530F7
:1009D00091050CF413C180914601909147018F312C
:1009E00091050CF00BC185E290E025E230E0F901C1
:1009F00020812460FC01208380E090E0A8ECB2E438
:100A000089839A83AB83BC8320E030E04AE753E4D8
:100A100069817A818B819C810E945709DC01CB011D
:100A20008D839E83AF83B88720E030E040E85FE3AA
:100A30006D817E818F8198850E94040888232CF423
:100A400081E090E09A8789873FC020E03FEF4FE741
:100A500057E46D817E818F8198850E945309181615
:100A60004CF520E030E040E251E469817A818B81ED
:100A70009C810E945709DC01CB01BC01CD010E9481
:100A80007508DC01CB019A8789870FC089E190E066
:100A90009C878B878B859C850197F1F79C878B873B
:100AA00089859A8501979A87898789859A8500978C
:100AB00069F714C06D817E818F8198850E947508C9
:100AC000DC01CB019A87898789859A859E878D87E6
:100AD0008D859E850197F1F79E878D8785E290E051
:100AE000FC01108210924B0110924A017BC080E001
:100AF00090E0A8ECB2E48F87988BA98BBA8B20E0AA
:100B000030E04AE753E46F85788989899A890E94A1
:100B10005709DC01CB018B8B9C8BAD8BBE8B20E00E
:100B200030E040E85FE36B897C898D899E890E9473
:100B3000040888232CF481E090E0988F8F8B3FC0CD
:100B400020E03FEF4FE757E46B897C898D899E89D0
:100B50000E94530918164CF520E030E040E251E4C1
:100B60006F85788989899A890E945709DC01CB01B0
:100B7000BC01CD010E947508DC01CB01988F8F8BE1
:100B80000FC089E190E09A8F898F898D9A8D0197A6
:100B9000F1F79A8F898F8F89988D0197988F8F8B16
:100BA0008F89988D009769F714C06B897C898D892E
:100BB0009E890E947508DC01CB01988F8F8B8F89ED
:100BC000988D9C8F8B8F8B8D9C8D0197F1F79C8FCF
:100BD0008B8F80914A0190914B01019690934B012C
:100BE00080934A0120914A0130914B018091460146
:100BF00090914701281739070CF479CF809146016D
:100C000090914701853091055CF485E290E025E202
:100C100030E0F90120812460FC0120830E94450618
:100C200080914601909147018F31910514F00E9407
:100C30008E0786E490E0FC01108284E490E024E4D6
:100C400030E0F90120812460FC01208310924901E9
:100C50001092480100006C960FB6F894DEBF0FBEEC
:100C6000CDBFDF91CF91FF91EF91BF91AF919F9158
:100C70008F917F916F915F914F913F912F910F9045
:100C800000925F000F901F901895CF93DF93CDB720
:100C9000DEB72A970FB6F894DEBF0FBECDBF84E251
:100CA00090E02FEFFC01208388E0E6E0F1E0DE0138
:100CB000139601900D928A95E1F785E290E025E286
:100CC00030E0F90120812460FC01208384E490E07D
:100CD000FC01808184E490E0FC01108286E490E0D5
:100CE000FC018081882F90E0AA2797FDA095BA2F5C
:100CF000BC01CD010E94A308DC01CB012BE13FE246
:100D00004DE55EE3BC01CD010E945709DC01CB013A
:100D1000BC01CD010E947008DC01CB01909347011A
:100D2000809346018091460190914701292F2F938E
:100D30008F9380E091E0892F8F9380E091E08F93F3
:100D40008CE491E0892F8F938CE491E08F930E9443
:100D5000BA090F900F900F900F900F900F908CE4A6
:100D600091E00E94A70083E090E09A838983C8C045
:100D700085E290E025E230E0F90120812460FC0169
:100D800020838091460190914701292F2F938F93C3
:100D900080E091E0892F8F9380E091E08F938CE445
:100DA00091E0892F8F938CE491E08F930E94BA0990
:100DB0000F900F900F900F900F900F908CE491E098
:100DC0000E94A70085E290E029813A81220F331F1B
:100DD000AE014F5F5F4F240F351F2E5F3F4FF9016C
:100DE00020813181FC01208385E290E025E230E022
:100DF000F90120812460FC012083809146019091BB
:100E00004701292F2F938F9380E091E0892F8F93B3
:100E100080E091E08F938CE491E0892F8F938CE4B4
:100E200091E08F930E94BA090F900F900F900F904E
:100E30000F900F908CE491E00E94A7000E94D607CB
:100E400085E290E022E0FC012083809146019091B0
:100E50004701292F2F938F9380E091E0892F8F9363
:100E600080E091E08F938CE491E0892F8F938CE464
:100E700091E08F930E94BA090F900F900F900F90FE
:100E80000F900F908CE491E00E94A70085E290E023
:100E900025E230E0F90120812460FC0120830E94DA
:100EA000D6078091460190914701292F2F938F9368
:100EB00080E091E0892F8F9380E091E08F938CE424
:100EC00091E0892F8F938CE491E08F930E94BA096F
:100ED0000F900F900F900F900F900F908CE491E077
:100EE0000E94A70085E290E025E230E0F901208130
:100EF0002460FC01208389819A8101979A838983E8
:100F000089819A8199230CF033CF2A960FB6F894F1
:100F1000DEBF0FBECDBFDF91CF910895CF93DF939A
:100F2000CDB7DEB72A970FB6F894DEBF0FBECDBFA0
:100F300084E290E02FEFFC01208388E0E6E0F1E01E
:100F4000DE01139601900D928A95E1F71A821982BB
:100F50001FC085E290E029813A81220F331FAE0144
:100F60004F5F5F4F240F351F2E5F3F4FF9012081E8
:100F70003181FC0120830E94D60785E290E0FC01CC
:100F800010820E94D60789819A8101969A8389836B
:100F900089819A8184309105E4F22A960FB6F894FB
:100FA000DEBF0FBECDBFDF91CF910895CF93DF930A
:100FB000CDB7DEB785E890E02FECFC01208384E814
:100FC00090E02CE2FC01208380E890E0FC0110829C
:100FD00081E890E022E0FC012083000086E390E0BD
:100FE000FC018081882F90E0817099270097B1F3F0
:100FF00081E890E0FC01108286E390E021E0FC01B2
:101000002083DF91CF910895D9D008F481E008952D
:101010000CD00FC107D140F0FED030F021F45F3F7B
:1010200019F0F0C0511139C1F3C014D198F39923CC
:10103000C9F35523B1F3951B550BBB27AA2762179C
:101040007307840738F09F5F5F4F220F331F441FE1
:10105000AA1FA9F333D00E2E3AF0E0E830D0915019
:101060005040E695001CCAF729D0FE2F27D0660F06
:10107000771F881FBB1F261737074807AB07B0E845
:1010800009F0BB0B802DBF01FF2793585F4F2AF05B
:101090009E3F510568F0B6C000C15F3FECF3983E3B
:1010A000DCF3869577956795B795F7959F5FC9F7B8
:1010B000880F911D9695879597F90895E1E0660F41
:1010C000771F881FBB1F621773078407BA0720F0BA
:1010D000621B730B840BBA0BEE1F88F7E095089523
:1010E00004D06894B111D9C00895BCD088F09F573E
:1010F00090F0B92F9927B751A0F0D1F0660F771F64
:10110000881F991F1AF0BA95C9F712C0B13081F043
:10111000C3D0B1E00895C0C0672F782F8827B85F8B
:1011200039F0B93FCCF3869577956795B395D9F7A4
:101130003EF490958095709561957F4F8F4F9F4FAE
:101140000895E89409C097FB3EF4909580957095BA
:1011500061957F4F8F4F9F4F9923A9F0F92F96E903
:10116000BB279395F695879577956795B795F11178
:10117000F8CFFAF4BB0F11F460FF1BC06F5F7F4F15
:101180008F4F9F4F16C0882311F096E911C0772327
:1011900021F09EE8872F762F05C0662371F096E830
:1011A000862F70E060E02AF09A95660F771F881FFF
:1011B000DAF7880F9695879597F90895990F0008A3
:1011C000550FAA0BE0E8FEEF16161706E807F90719
:1011D000C0F012161306E407F50798F0621B730BB4
:1011E000840B950B39F40A2661F0232B242B252B35
:1011F00021F408950A2609F4A140A6958FEF811DD8
:10120000811D089597F99F6780E870E060E0089578
:101210009FEF80EC089500240A941616170618060E
:101220000906089500240A941216130614060506EA
:101230000895092E0394000C11F4882352F0BB0F7B
:1012400040F4BF2B11F460FF04C06F5F7F4F8F4FDE
:101250009F4F089557FD9058440F551F59F05F3F19
:1012600071F04795880F97FB991F61F09F3F79F0C8
:1012700087950895121613061406551FF2CF46954A
:10128000F1DF08C0161617061806991FF1CF8695CC
:101290007105610508940895E894BB2766277727B0
:1012A000CB0197F908958ADF08F48FEF08950BD0EA
:1012B000C0CFB1DF28F0B6DF18F0952309F0A2CF38
:1012C000A7CF1124EACFC6DFA0F3959FD1F3950FE6
:1012D00050E0551F629FF001729FBB27F00DB11DBA
:1012E000639FAA27F00DB11DAA1F649F6627B00D4A
:1012F000A11D661F829F2227B00DA11D621F739F33
:10130000B00DA11D621F839FA00D611D221F749F40
:101310003327A00D611D231F849F600D211D822F87
:10132000762F6A2F11249F5750408AF0E1F08823CE
:101330004AF0EE0FFF1FBB1F661F771F881F9150DB
:101340005040A9F79E3F510570F05CCFA6CF5F3F9C
:10135000ECF3983EDCF3869577956795B795F7950E
:10136000E7959F5FC1F7FE2B880F911D9695879596
:1013700097F90895AEE0B0E0E0ECF9E00C94620C6F
:101380000D891E8986E08C831A8309838FEF9FE77E
:101390009E838D83AE01475E5F4F6F89788DCE014E
:1013A00001960E94DC09EF81F885E00FF11F1082A1
:1013B0002E96E4E00C947E0CACE0B0E0E2EEF9E0B6
:1013C0000C94540C7C016B018A01FC01178216827B
:1013D000838181FFBDC1CE0101964C01F70193814C
:1013E000F60193FD859193FF81916F01882309F4A4
:1013F000ABC1853239F493FD859193FF81916F01E3
:10140000853229F4B70190E00E94C40BE7CF512C3C
:10141000312C20E02032A0F48B3269F030F480329D
:1014200059F0833269F420612CC08D3239F0803359
:1014300039F4216026C02260246023C0286021C0C6
:1014400027FD27C030ED380F3A3078F426FF06C06C
:10145000FAE05F9E300D1124532E13C08AE0389EAF
:10146000300D1124332E20620CC08E3221F426FD63
:101470006BC1206406C08C3611F4206802C0883627
:1014800041F4F60193FD859193FF81916F018111E4
:10149000C1CF982F9F7D9554933028F40C5F1F4F38
:1014A000FFE3F9830DC0833631F0833771F0833564
:1014B00009F05BC022C0F801808189830E5F1F4F55
:1014C00044244394512C540115C03801F2E06F0EAE
:1014D000711CF801A080B18026FF03C0652D70E06B
:1014E00002C06FEF7FEFC5012C870E94B90B2C0162
:1014F00083012C852F77222E17C03801F2E06F0E62
:10150000711CF801A080B18026FF03C0652D70E03A
:1015100002C06FEF7FEFC5012C870E94AE0B2C013C
:101520002C852068222E830123FC1BC0832D90E094
:1015300048165906B0F4B70180E290E00E94C40B4F
:101540003A94F4CFF50127FC859127FE81915F0144
:10155000B70190E00E94C40B31103A94F1E04F1AA9
:1015600051084114510471F7E5C0843611F08936F1
:1015700039F5F80127FF07C060817181828193816D
:101580000C5F1F4F08C060817181882777FD8095AF
:10159000982F0E5F1F4F2F76B22E97FF09C09095A0
:1015A0008095709561957F4F8F4F9F4F2068B22E29
:1015B0002AE030E0A4010E94F60BA82EA81844C02F
:1015C000853729F42F7EB22E2AE030E025C0F22F95
:1015D000F97FBF2E8F36C1F018F4883579F0B4C08A
:1015E000803719F0883721F0AFC02F2F2061B22E3D
:1015F000B4FE0DC08B2D8460B82E09C024FF0AC034
:101600009F2F9660B92E06C028E030E005C020E18B
:1016100030E002C020E132E0F801B7FE07C060818F
:101620007181828193810C5F1F4F06C0608171813F
:1016300080E090E00E5F1F4FA4010E94F60BA82EE1
:10164000A818FB2DFF77BF2EB6FE0BC02B2D2E7FCB
:10165000A51450F4B4FE0AC0B2FC08C02B2D2E7E97
:1016600005C07A2C2B2D03C07A2C01C0752C24FFC9
:101670000DC0FE01EA0DF11D8081803311F4297E39
:1016800009C022FF06C07394739404C0822F867829
:1016900009F0739423FD13C020FF06C05A2C731465
:1016A00018F4530C5718732C731468F4B70180E2C4
:1016B00090E02C870E94C40B73942C85F5CF731493
:1016C00010F4371801C0312C24FF12C0B70180E399
:1016D00090E02C870E94C40B2C8522FF17C021FFAD
:1016E00003C088E590E002C088E790E0B7010CC035
:1016F000822F867859F021FD02C080E201C08BE282
:1017000027FD8DE2B70190E00E94C40BA51438F4C8
:10171000B70180E390E00E94C40B5A94F7CFAA94DB
:10172000F401EA0DF11D8081B70190E00E94C40B25
:10173000A110F5CF332009F451CEB70180E290E03B
:101740000E94C40B3A94F6CFF7018681978102C0BC
:101750008FEF9FEF2C96E2E10C94700CFC0105904A
:10176000615070400110D8F7809590958E0F9F1FA3
:101770000895FC016150704001900110D8F78095E8
:1017800090958E0F9F1F08950F931F93CF93DF9314
:10179000182F092FEB018B8181FD03C08FEF9FEF85
:1017A00020C082FF10C04E815F812C813D81421795
:1017B00053077CF4E881F9819F012F5F3F4F398304
:1017C0002883108306C0E885F985812F0995892B28
:1017D00029F72E813F812F5F3F4F3F832E83812F3B
:1017E000902FDF91CF911F910F910895FA01AA27B1
:1017F000283051F1203181F1E8946F936E7F6E5F54
:101800007F4F8F4F9F4FAF4FB1E03ED0B4E03CD001
:10181000670F781F891F9A1FA11D680F791F8A1FE4
:10182000911DA11D6A0F711D811D911DA11D20D04B
:1018300009F468943F912AE0269F11243019305D05
:101840003193DEF6CF010895462F4770405D4193F6
:10185000B3E00FD0C9F7F6CF462F4F70405D4A3343
:1018600018F0495D31FD4052419302D0A9F7EACF0B
:10187000B4E0A6959795879577956795BA95C9F73A
:1018800000976105710508959B01AC010A2E06942D
:101890005795479537952795BA95C9F7620F731FE6
:1018A000841F951FA01D08952F923F924F925F9223
:1018B0006F927F928F929F92AF92BF92CF92DF9260
:1018C000EF92FF920F931F93CF93DF93CDB7DEB7C5
:1018D000CA1BDB0B0FB6F894DEBF0FBECDBF099459
:1018E0002A88398848885F846E847D848C849B84B0
:1018F000AA84B984C884DF80EE80FD800C811B81BE
:10190000AA81B981CE0FD11D0FB6F894DEBF0FBEEC
:0A191000CDBFED010895F894FFCF5C
:0E191A00256420494E0030006000C00090009F
:00000001FF
